:040000008A11112828
:100006000800FE00030EF0000408F1000A08F200E2
:10001600831203137F08F3008A156D2F8A15B62FF6
:1000260083120313DF005530D9005908DC00402A3B
:100036006508253A0319202821282D286508D900A6
:100046005F0884005908831380000130D9005908DD
:10005600DF07402AE001E101DE01392839285E1573
:100066000130D9005908D407392844285408840097
:100076008A110A258A11303A03193228442844285D
:100086003928540884008A110A258A118A158D2771
:100096008A11031C4F285028F62883120313E00107
:1000A600E10155280A3083120313C8000030C90045
:1000B6006108CB01CB076008CA01CA078A117327FA
:1000C6008A11831203134908E101E1074808E00198
:1000D600E007540884008A110A258A11D03ED90007
:1000E600FF3003180030DA005908E0070318E10A68
:1000F6005A08E1070130D9005908D407540884008A
:100106008A110A258A118A158D278A1103188C28C7
:100116008D285528F628F628F628522A0B290B2969
:100126008312031361086402031D9B28600863029F
:1001360003189E289F28A6286308E0026408031C6B
:10014600E103E102B628E001E101B628B628203035
:10015600D9005F0884005908831380000130D90054
:100166005908DF07B628FF30E0070318E10AFF3019
:10017600E107FF306106031DC228FF306006031D3C
:10018600C528C628AA28DA28DA2862088400831334
:100196000008D9005F088400590880000130D900A2
:1001A6005908E2070130D9005908DF07DA2801307B
:1001B600E3020030031CE403E402FF306406031D7F
:1001C600E628FF306306031DE928EA28C828402AE6
:1001D600402A6530D9005908E2000130E3000030BA
:1001E600E40093280B29013083120313D407FF3050
:1001F600540784008A110A258A11E500003A03197A
:10020600522A643A03190B290D3A03190B29EC28D3
:10021600831203135C08840083130008E200840A37
:100226000008E3000230D9005908DC07E31F1C2947
:100236001D2927290330D9005908DE04E209E309FC
:10024600E20A0319E30A2729E501E50A6508053AE2
:10025600031D2E292F293129552955296508D9002D
:100266005907013E84008A110A258A11DA008A118B
:100276000A258A11DB005B086302031D44295A081C
:1002860062020318472948294A2955295529013068
:10029600D9005908E5076508053A031D532954296D
:1002A600312955296108600403195A295B296729F0
:1002B6005E0803390319602961296729FF30E007C1
:1002C6000318E10AFF30E1076508D900DA01D91BF6
:1002D600DA035A08803ADB006108803A5B02031DA4
:1002E600762960085902031879297A298829831200
:1002F60003136508D900DA01D91BDA035908E002AD
:100306005A08031CE103E1028D2983120313E0015D
:10031600E1018D295E1D90299129C4295E080339C2
:10032600031996299729A3292D30D9005F0884003F
:100336005908831380000130D9005908DF07A32923
:10034600610860040319A829A929F729AA293030C8
:10035600D9005F0884005908831380000130D90052
:100366005908DF07FF30E0070318E10AFF30E1070D
:1003760061086004031DC029C129AA29F729F729A4
:10038600F729610860040319C929CA29E429CB2978
:100396002030D9005F08840059088313800001309B
:1003A600D9005908DF07FF30E0070318E10AFF30DC
:1003B600E10761086004031DE129E229CB29E4294C
:1003C600E4295E0803390319E929EA29F7292D30BA
:1003D600D9005F0884005908831380000130D900D2
:1003E6005908DF07F729F7296508D9005908DD00FC
:1003F600342A0A30CF000030D0005D08D9005907F2
:10040600013E84008A110A258A11C8008A110A252C
:100416008A11C9006308CB01CB076208CA01CA0763
:100426008A115C258A11831203134908D201D20767
:100436004808D101D1078A118A268A11831203132B
:100446004F08303EDA005A08E5006508D9005F0813
:1004560084005908831380000130D9005908DF074A
:10046600342AFF30D9005908DD075D08FF3A031D1D
:100476003D2A3E2AFC29402A402A0130D407FF3073
:10048600540784008A110A258A11D9005908E50003
:10049600E508031D4F2A502A1B28522A522A831286
:1004A60003135F08840083138001592A080083120E
:1004B6000313D40054088A119F278A118312031349
:1004C600D1005108EF005008D1005108EE004F0846
:1004D600D1005108ED000230D3000430D200BA300A
:1004E600D100D10B742AD20B742AD30B742A0000C4
:1004F600831203136F08043A031D822A832AC12A32
:1005060003308A1144268A110D3083120313D20058
:10051600FB30D100D10B8D2AD20B8D2A922A0330C3
:100526008A1144268A114F3083120313D100D10B4E
:100536009A2A9D2A03308A1144268A114F30831243
:100546000313D100D10BA52AA82A02308A1144260A
:100556008A114F3083120313D100D10BB02AB32A6C
:1005660083120313CC012C308A11CF268A11213035
:1005760083120313D100D10BBE2A042B831203135B
:100586006F08083A031DC82AC92A042BCC0120305B
:100596008A11CF268A110D3083120313D200FB3045
:1005A600D100D10BD42AD20BD42AD92A8312031311
:1005B600CC0120308A11CF268A114F3083120313C3
:1005C600D100D10BE42AE72A83120313CC01203091
:1005D6008A11CF268A114F3083120313D100D10B13
:1005E600F22AF52A83120313CC013C308A11CF2656
:1005F6008A11213083120313D100D10B002B042B57
:10060600042B83120313CC0108308A11CF268A11DA
:10061600213083120313D100D10B0F2B8312031346
:10062600CC0101308A11CF268A11063083120313BA
:10063600D2003030D100D10B1E2BD20B1E2B000066
:1006460083120313CC0106308A11CF268A1121307A
:1006560083120313D100D10B2E2B312B08008312EA
:100666000313CD01CA010730C8004808CB00CC01EE
:10067600CD0105304D02031C412B422B442B532B3D
:10068600532B4D08263E8400831380010130C80099
:100696004808CD0705304D02031C522B532B442B23
:1006A6008B138A15E3278A1183120313CC01CC0A14
:1006B600682B0130C8004808CC074C08013A031DD6
:1006C600652B662B682BFD2BFD2B061D6B2B6C2BD0
:1006D6005C2BCC01CC0A7B2B0130C8004808CC0728
:1006E6004C08013A031D782B792B7B2BFD2BFD2B18
:1006F60006197E2B7F2B6F2BCD0128304D02031C54
:10070600852B862B882BF92BF92BCC01CC0A972B22
:100716000130C8004808CC074C08013A031D942B49
:10072600952B972BFD2BFD2B061D9A2B9B2B8B2B8D
:100736009C2B1A30C800C80B9E2B00008312031393
:100746000619A62BA72BB92BCB08031DAB2BAC2B5D
:10075600B52B0730C8004808CB000130C800480850
:10076600CA07EF2B0130CB02EF2BEF2BCC01CC0AC3
:10077600C82B0130C8004808CC074C08013A031DB5
:10078600C52BC62BC82BFD2BFD2B0619CB2BCC2B33
:10079600BC2BCD2B0130C8004B0AD32B0310C80D40
:1007A600FF3E031DD12B4808C9004A08263E840097
:1007B600490883138004CB08031DE22BE32BEC2BA3
:1007C6000730C8004808CB000130C8004808CA07EF
:1007D600EF2B0130CB02EF2B0130C8004808CD07C4
:1007E60028304D02031CF82BF92B882B8B17003071
:1007F600002C002C8B170130002C080083160313E5
:10080600A101A201831203132B09E6002C09E700BC
:100816002D09E8002E09E900E60A0319E70A03197B
:10082600E80A0319E90A8A15A1278A118312031314
:100836004808E60749080318490F222C232CE70726
:100846004A0803184A0F282C292CE8074B080318D6
:100856004B0AE90700306902031D3B2C133068027E
:10086600031D3B2C13306702031D3B2C2030660210
:10087600031C3E2C3F2CA82C8A15A1278A11831213
:1008860003134B08AE004A08AD004908AC004808FF
:10089600AB00CF01CF0A00308A11CA278A11A230D5
:1008A60083120313E6006608CE00A1308A110A27D8
:1008B6008A1183120313E700670883160313A00047
:1008C600A008031D672C682C892C2630831203137D
:1008D600E6006608D4008316031321088312031367
:1008E600E700E8016708D5006808D60083160313F9
:1008F600220883120313E900EA016908D7006A088F
:10090600D80034308A1113208A119E2C0F3083129E
:100916000313E6006608D400831603132008831227
:100926000313E700E8016708D5006808D6003430ED
:100936008A1113208A11343083120313CF0000303A
:10094600D0008A11A9248A11A82C0800BF2C831272
:100956000313CC01CC0A5008FF004F0884008A110B
:1009660000258A118A11CF268A11013083120313BA
:10097600CF070318D00ABF2C831203135008FF00B9
:100986004F0884008A1100258A110038031DCC2CDB
:10099600CD2CAA2CCE2C0800831603130C140000B1
:1009A600831603130C10831203130E08F400740845
:1009B600A0000F08F4007408A1007908A5007808C3
:1009C600A4007708A3007608A2000C18EB2CEC2CE8
:1009D600CF2C831603130C14080083120313900103
:1009E6008E018F010C10831603130C148B170B1733
:1009F60031308312031390000800FF1B0A2D831366
:100A06007F1883170008840A0319FF0A08000530B7
:100A16008A000408840A82070034013400340A3448
:100A2600003464340034E83403341034273400349A
:100A3600403414345434533465346E3473346F3460
:100A4600723420346534723472346F3472343A340A
:100A56002034253430343234643420342034203485
:100A66002034003454343A3420342534303432348B
:100A7600643420344334203448343A342034253422
:100A86003034323464342534253420342034003470
:100A960020342034503452345534453442344134B1
:100AA60020344434483454343134313420342034FE
:100AB600003483120313CD01CE01490848040319FB
:100AC600652D662DA32DCC01CC0A752D01300310A2
:100AD600C80DC90DFF3E031D6A2D0130F4007408D0
:100AE600CC07752DC91F782D792D692D7B2D7B2D72
:100AF60001300310CD0DCE0DFF3E031D7C2D4908A0
:100B06004B02031D882D48084A02031C8B2D8C2D91
:100B1600942D4808CA024908031CCB03CB024D1486
:100B2600942D01300310C90CC80CFF3E031D952DF2
:100B36000130CC02031DA02DA12D7B2DA32DA32DAD
:100B46004E08C901C9074D08C801C807AA2D0800E3
:100B5600831203132F09CC003009CD003109CE00D2
:100B66003209CF00CC0A0319CD0A0319CE0A03199C
:100B7600CF0A8A15A1278A11831203134808CC07C6
:100B860049080318490FC82DC92DCD074A0803186F
:100B96004A0FCE2DCF2DCE074B0803184B0ACF0791
:100BA60000304F02031DE12D01304E02031DE12DE1
:100BB600E8304D02031DE12D50304C02031CE42D9C
:100BC600E52DF72D8A15A1278A11831203134B08E9
:100BD600B2004A08B1004908B0004808AF0010301A
:100BE600CC004C088506F72D0800F5002C2E74085D
:100BF60083120313031D051403190510432E7408ED
:100C060083120313031D851403198510432E7408DC
:100C160083120313031D051503190511432E7408CA
:100C260083120313031D851503198511432E7408BA
:100C360083120313031D861403198610432E7408AA
:100C460083120313031D061403190610432E432EA5
:100C5600432E7508043A0319FA2D013A0319022E98
:100C6600033A03190A2E013A0319122E0F3A0319F1
:100C7600222E013A03191A2E033A0319432E432E44
:100C8600080083120313CA000430C8004808CB00CA
:100C960008304B02031C502E512E532E772E772EE2
:100CA6000130C8004B08FC3E013E5B2E0310C80D08
:100CB600FF3E031D592E48084A050030031D01302A
:100CC600C9004908F4004B088A11F8258A11013039
:100CD60083120313C8004808CB0708304B02031CD5
:100CE600752E762E532E772EF401F40A08308A11CB
:100CF600F8258A11063083120313C800C80B812E0B
:100D06000000F40108308A11F8258A1108008312C0
:100D1600031350084F040319912E922EC72ED301A8
:100D2600D30AA12E01300310CF0DD00DFF3E031DB7
:100D3600962E0130F5007508D307A12ED01FA42EDC
:100D4600A52E952EA72EA72E50085202031DAD2EB6
:100D56004F085102031CB02EB12EB82E4F08D102F7
:100D66005008031CD203D202B82E01300310D00C57
:100D7600CF0CFF3E031DB92E0130D302031DC42E36
:100D8600C52EA72EC72EC72E5208D001D007510850
:100D9600CF01CF07CE2E080083120313CE004C08D6
:100DA600031DD62EDD2EF401F40A09308A11F8252A
:100DB6008A11E22EF40109308A11F8258A11F4010C
:100DC6000A308A11F8258A11831203136F08043A30
:100DD600031DEE2EEF2E022F4E08CD000430031019
:100DE600CD0CFF3E031DF22E4D088A1144268A11B2
:100DF600831203134E088A1144268A11092F83127F
:100E060003134E088A1103208A11092F0800831242
:100E16000313D2008A1132238A1183120313CF00DF
:100E26004F08D4005408031D192F1C2F54083F2FB8
:100E36003F2F28082707CF0029084F07D00026088C
:100E46005007D1005108D3002A08530603192C2F46
:100E56002D2F302F02303F2F3F2F2608CF004E0870
:100E660084004F08831380002808CF0052088400AE
:100E76004F08800000303F2F08007C308316031394
:100E86008F009B01E0308500FF3086001030831212
:100E96000313EB006B08CF000230EC006C08D000A7
:100EA60000308A115A228A118A11F0248A118A1175
:100EB600FA278A118A157D278A113C30831203137B
:100EC600CF008030D0008A11A9248A116A2F8A1196
:100ED600AB258A118A1101248A116A2F8A111128D9
:100EE600F401F501762F83120313481C7B2F7C2F08
:100EF600822F4A08F4070318F50A4B08F507013054
:100F06000310CA0DCB0DFF3E031D832F01300310C6
:100F1600C90CC80CFF3E031D8A2F49084804031D4F
:100F2600952F962F762F972F7508C901C907740834
:100F3600C801C8079E2F080083120313C901831630
:100F460003130610861005108510051185118312EE
:100F56000313C9010B304902031CB22FB32FB52F5F
:100F6600C72FC72FF40149088A11F8258A110130C5
:100F760083120313C8004808C9070B304902031C33
:100F8600C52FC62FB52FC72F0430C92F08008312CF
:100F96000313D1006E084F02031CD22FD32FD92F73
:100FA6006E08FF3ED0005008CF00D92F6D085102C1
:100FB600031CDE2FDF2FE52F6D08FF3ED000500803
:100FC600D100E52FCC014F080B3E84008A110A257B
:100FD6008A11510780388A11CF268A1108006400C9
:100FE6008001840A0406031900340406F32F8316CD
:0A0FF600031306150800103402343E
:101EDA008A15CC278A15730883120313FF00720828
:101EEA008A0071088400700E8300FE0E7E0E0900BF
:101EFA00831203133315CC01330808388A11CF260D
:101F0A008A15213083120313CF00CF0B8A2F0800C2
:101F1A00F500F4013A3075020318942F952F9E2F7D
:101F2A0030307502031C9A2F9B2F9E2FF401F40A5E
:101F3A009E2F740CA02F08008A11CF248A152030F6
:101F4A0084008313000883120313C800840A00085C
:101F5A00C900840A0008CA00840A0008CB00B52F09
:101F6A000800F601F701F801F90183132030840013
:101F7A0048308A11F2278A158A11FE278A15ED0040
:101F8A008A11FF278A15EE0083018A11402F8312D6
:101F9A0003130C1CD12FD22FE22F0130F607003089
:101FAA0003180130F707003003180130F807003032
:101FBA0003180130F9070C10E22F080083160313E7
:101FCA00061183120313061106113430F500F1309D
:101FDA00F400F40BEE2FF50BEE2FF32F83120313FD
:101FEA00061506158316031306152730F400F40B9D
:061FFA00FC2FFF2F080080
:04400E0038FFFCFF7C
:00000001FF
