:040000008A11112828
:10000800FE00030EF0000408F1000A08F200831253
:1000180003137F08F3008A156D2F8A15B62F8312F4
:100028000313DF005530D9005908DC00402A650861
:10003800253A0319202821282D286508D9005F08AA
:1000480084005908831380000130D9005908DF075C
:10005800402AE001E101DE01392839285E15013026
:10006800D9005908D40739284428540884008A112B
:100078000A258A11303A0319322844284428392895
:10008800540884008A110A258A118A158D278A1135
:10009800031C4F285028F62883120313E001E101BE
:1000A80055280A3083120313C8000030C9006108BC
:1000B800CB01CB076008CA01CA078A1172278A11C7
:1000C800831203134908E101E1074808E001E0074A
:1000D800540884008A110A258A11D03ED900FF30BD
:1000E80003180030DA005908E0070318E10A5A0833
:1000F800E1070130D9005908D407540884008A114F
:100108000A258A118A158D278A1103188C288D28AB
:100118005528F628F628F628522A0B290B29831287
:10012800031361086402031D9B2860086302031817
:100138009E289F28A6286308E0026408031CE103A0
:10014800E102B628E001E101B628B6282030D9003E
:100158005F0884005908831380000130D9005908CA
:10016800DF07B628FF30E0070318E10AFF30E10790
:10017800FF306106031DC228FF306006031DC52835
:10018800C628AA28DA28DA28620884008313000817
:10019800D9005F088400590880000130D900590847
:1001A800E2070130D9005908DF07DA280130E302F5
:1001B8000030031CE403E402FF306406031DE62854
:1001C800FF306306031DE928EA28C828402A402A88
:1001D8006530D9005908E2000130E3000030E4003E
:1001E80093280B29013083120313D407FF305407D7
:1001F80084008A110A258A11E500003A0319522A57
:10020800643A03190B290D3A03190B29EC288312B8
:1002180003135C08840083130008E200840A0008C2
:10022800E3000230D9005908DC07E31F1C291D2907
:1002380027290330D9005908DE04E209E309E20A54
:100248000319E30A2729E501E50A6508053A031DAC
:100258002E292F293129552955296508D9005907EB
:10026800013E84008A110A258A11DA008A110A25BA
:100278008A11DB005B086302031D44295A086202E5
:100288000318472948294A29552955290130D900F1
:100298005908E5076508053A031D532954293129EA
:1002A80055296108600403195A295B2967295E08E2
:1002B80003390319602961296729FF30E00703180A
:1002C800E10AFF30E1076508D900DA01D91BDA0332
:1002D8005A08803ADB006108803A5B02031D7629E0
:1002E80060085902031879297A2988298312031387
:1002F8006508D900DA01D91BDA035908E0025A085F
:10030800031CE103E1028D2983120313E001E101DB
:100318008D295E1D90299129C4295E080339031986
:1003280096299729A3292D30D9005F0884005908F8
:10033800831380000130D9005908DF07A329610819
:1003480060040319A829A929F729AA293030D90056
:100358005F0884005908831380000130D9005908C8
:10036800DF07FF30E0070318E10AFF30E107610803
:100378006004031DC029C129AA29F729F729F729EB
:10038800610860040319C929CA29E429CB29203046
:10039800D9005F0884005908831380000130D90010
:1003A8005908DF07FF30E0070318E10AFF30E107CB
:1003B80061086004031DE129E229CB29E429E42925
:1003C8005E0803390319E929EA29F7292D30D900EC
:1003D8005F0884005908831380000130D900590848
:1003E800DF07F729F7296508D9005908DD00342AFD
:1003F8000A30CF000030D0005D08D9005907013E0F
:1004080084008A110A258A11C8008A110A258A11CE
:10041800C9006308CB01CB076208CA01CA078A1161
:100428005C258A11831203134908D201D2074808B0
:10043800D101D1078A1189268A11831203134F0823
:10044800303EDA005A08E5006508D9005F088400E4
:100458005908831380000130D9005908DF07342A6E
:10046800FF30D9005908DD075D08FF3A031D3D2A12
:100478003E2AFC29402A402A0130D407FF3054077D
:1004880084008A110A258A11D9005908E500E5086F
:10049800031D4F2A502A1B28522A522A831203135B
:1004A8005F08840083138001592A0800831203130C
:1004B800D30053088A119E278A1183120313D1008F
:1004C8005108EF005008D1005108EE004F08D10044
:1004D8005108ED008230D200DD30D100D10B722AF4
:1004E800D20B722A772A831203136F08043A031D6A
:1004F8007E2A7F2ABD2A03308A1144268A110730B2
:1005080083120313D2007D30D100D10B892AD20B7C
:10051800892A03308A1144268A112730831203134B
:10052800D100D10B952A982A03308A1144268A11C2
:10053800273083120313D100D10BA02AA32A02303B
:100548008A1144268A11273083120313D100D10B54
:10055800AB2AAE2A83120313CC012C308A11CE2683
:100568008A11103083120313D100D10BB92A00006D
:10057800002B831203136F08083A031DC42AC52AE7
:10058800002BCC0120308A11CE268A110730831225
:100598000313D2007D30D100D10BD02AD20BD02A40
:1005A80083120313CC0120308A11CE268A112730FA
:1005B80083120313D100D10BDF2AE22A831203131B
:1005C800CC0120308A11CE268A11273083120313DA
:1005D800D100D10BED2AF02A83120313CC013C3051
:1005E8008A11CE268A11103083120313D100D10B41
:1005F800FB2A0000002B002B83120313CC010830C8
:100608008A11CE268A11103083120313D100D10B20
:100618000B2B000083120313CC0101308A11CE2664
:100628008A11033083120313D2009730D100D10B03
:100638001B2BD20B1B2B202B83120313CC01063050
:100648008A11CE268A11103083120313D100D10BE0
:100658002B2B00002F2B080083120313CD01CA0196
:100668000730C8004808CB00CC01CD0105304D0249
:10067800031C3F2B402B422B512B512B4D08263E60
:100688008400831380010130C8004808CD07053075
:100698004D02031C502B512B422B8B138A15E32739
:1006A8008A1183120313CC01CC0A662B0130C800CF
:1006B8004808CC074C08013A031D632B642B662BB2
:1006C800FB2BFB2B061D692B6A2B5A2BCC01CC0A62
:1006D800792B0130C8004808CC074C08013A031DA3
:1006E800762B772B792BFB2BFB2B06197C2B7D2B61
:1006F8006D2BCD0128304D02031C832B842B862BB8
:10070800F72BF72BCC01CC0A952B0130C8004808F1
:10071800CC074C08013A031D922B932B952BFB2BEE
:10072800FB2B061D982B992B892B9A2B1A30C80066
:10073800C80B9C2B0000831203130619A42BA52BAE
:10074800B72BCB08031DA92BAA2BB32B0730C80046
:100758004808CB000130C8004808CA07ED2B013013
:10076800CB02ED2BED2BCC01CC0AC62B0130C800F7
:100778004808CC074C08013A031DC32BC42BC62BD1
:10078800FB2BFB2B0619C92BCA2BBA2BCB2B013001
:10079800C8004B0AD12B0310C80DFF3E031DCF2BF9
:1007A8004808C9004A08263E840049088313800483
:1007B800CB08031DE02BE12BEA2B0730C8004808C3
:1007C800CB000130C8004808CA07ED2B0130CB0226
:1007D800ED2B0130C8004808CD0728304D02031C16
:1007E800F62BF72B862B8B170030FE2BFE2B8B1747
:1007F8000130FE2B080083160313A101A201831206
:1008080003132B09E6002C09E7002D09E8002E093F
:10081800E900E60A0319E70A0319E80A0319E90ACD
:100828008A15A1278A11831203134808E607490885
:100838000318490F202C212CE7074A0803184A0FF0
:10084800262C272CE8074B0803184B0AE907003029
:100858006902031D392C13306802031D392C13302B
:100868006702031D392C20306602031C3C2C3D2CEA
:10087800A62C8A15A1278A11831203134B08AE00F0
:100888004A08AD004908AC004808AB00CF01CF0AC0
:1008980000308A11C9278A11A23083120313E60097
:1008A8006608CE00A1308A1109278A118312031322
:1008B800E700670883160313A000A008031D652C32
:1008C800662C872C263083120313E6006608D400B2
:1008D80083160313210883120313E700E80167084E
:1008E800D5006808D6008316031322088312031361
:1008F800E900EA016908D7006A08D80034308A118B
:1009080013208A119C2C0F3083120313E60066080B
:10091800D40083160313200883120313E700E801A9
:100928006708D5006808D60034308A1113208A1168
:10093800343083120313CF000030D0008A11A7246B
:100948008A11A62C0800BD2C83120313CC01CC0AF3
:100958005008FF004F0884008A1100258A118A1167
:10096800CE268A11013083120313CF070318D00A49
:10097800BD2C831203135008FF004F0884008A110E
:1009880000258A110038031DCA2CCB2CA82CCC2C8E
:100998000800831603130C140000831603130C10AD
:1009A800831203130E08F4007408A0000F08F40063
:1009B8007408A1007908A5007808A4007708A300A6
:1009C8007608A2000C18E92CEA2CCD2C8316031308
:1009D8000C140800831203133315CC0133080838AC
:1009E8008A11CE268A11103083120313CF00CF0B41
:0609F800FB2C00000800CA
:100A0000FF1B0A2D83137F1883170008840A03191C
:100A1000FF0A080005308A000408840A82070034AF
:100A2000013400340A34003464340034E8340334CC
:100A3000103427340034403414345434533465347F
:100A40006E3473346F3472342034653472347234DB
:100A50006F3472343A3420342534303432346434D0
:100A60002034203420342034003454343A342034B8
:100A70002534303432346434203443342034483420
:100A80003A34203425343034323464342534253437
:100A9000203420340034203420345034523455343F
:100AA00045344234413420344434483454343134AD
:100AB000313420342034003483120313CD01CE01AD
:100AC000490848040319652D662DA32DCC01CC0AD5
:100AD000752D01300310C80DC90DFF3E031D6A2D91
:100AE0000130F4007408CC07752DC91F782D792DBD
:100AF000692D7B2D7B2D01300310CD0DCE0DFF3EDA
:100B0000031D7C2D49084B02031D882D48084A020D
:100B1000031C8B2D8C2D942D4808CA024908031CF8
:100B2000CB03CB024D14942D01300310C90CC80C1B
:100B3000FF3E031D952D0130CC02031DA02DA12DDC
:100B40007B2DA32DA32D4E08C901C9074D08C8014F
:100B5000C807AA2D0800831203132F09CC003009FF
:100B6000CD003109CE003209CF00CC0A0319CD0ADD
:100B70000319CE0A0319CF0A8A15A1278A118312F5
:100B800003134808CC0749080318490FC82DC92D7D
:100B9000CD074A0803184A0FCE2DCF2DCE074B089C
:100BA00003184B0ACF0700304F02031DE12D01301F
:100BB0004E02031DE12DE8304D02031DE12D5030A2
:100BC0004C02031CE42DE52DF72D8A15A1278A116F
:100BD000831203134B08B2004A08B1004908B00061
:100BE0004808AF001030CC004C088506F72D0800EF
:100BF000F5002C2E740883120313031D051403192A
:100C00000510432E740883120313031D8514031962
:100C10008510432E740883120313031D0515031951
:100C20000511432E740883120313031D8515031940
:100C30008511432E740883120313031D86140319B0
:100C40008610432E740883120313031D0614031920
:100C50000610432E432E432E7508043A0319FA2D2D
:100C6000013A0319022E033A03190A2E013A031915
:100C7000122E0F3A0319222E013A03191A2E033AA3
:100C80000319432E432E080083120313CA000430B5
:100C9000C8004808CB0008304B02031C502E512ED0
:100CA000532E772E772E0130C8004B08FC3E013EB4
:100CB0005B2E0310C80DFF3E031D592E48084A0540
:100CC0000030031D0130C9004908F4004B088A11A7
:100CD000F8258A11013083120313C8004808CB0796
:100CE00008304B02031C752E762E532E772EF401FE
:100CF000F40A08308A11F8258A110330831203138D
:100D0000C800C80B812EF40108308A11F8258A1119
:100D100008008312031350084F040319902E912EDC
:100D2000C62ED301D30AA02E01300310CF0DD00D53
:100D3000FF3E031D952E0130F5007508D307A02E48
:100D4000D01FA32EA42E942EA62EA62E50085202FB
:100D5000031DAC2E4F085102031CAF2EB02EB72E30
:100D60004F08D1025008031CD203D202B72E013023
:100D70000310D00CCF0CFF3E031DB82E0130D30260
:100D8000031DC32EC42EA62EC62EC62E5208D00179
:100D9000D0075108CF01CF07CD2E080083120313CF
:100DA000CE004C08031DD52EDC2EF401F40A0930C8
:100DB0008A11F8258A11E12EF40109308A11F825EB
:100DC0008A11F4010A308A11F8258A11831203135B
:100DD0006F08043A031DED2EEE2E012F4E08CD00B4
:100DE00004300310CD0CFF3E031DF12E4D088A1177
:100DF00044268A11831203134E088A1144268A114D
:100E0000082F831203134E088A11FF278A11082F17
:100E1000080083120313D2008A1130238A1183122F
:100E20000313CF004F08D4005408031D182F1B2FA5
:100E300054083E2F3E2F28082707CF0029084F07C8
:100E4000D00026085007D1005108D3002A085306C5
:100E500003192B2F2C2F2F2F02303E2F3E2F260829
:100E6000CF004E0884004F08831380002808CF006D
:100E7000520884004F08800000303E2F08007C306C
:100E8000831603138F009B01E0308500FF3086003E
:100E9000103083120313EB006B08CF000230EC001C
:100EA0006C08D00000308A115A228A118A157D27D9
:100EB0008A118A11F9278A118A11EE248A113C308D
:100EC00083120313CF008030D0008A11A7248A1127
:100ED000692F8A11AB258A118A11FF238A11692F84
:100EE0008A111128F401F501752F83120313481C90
:100EF0007A2F7B2F812F4A08F4070318F50A4B0835
:100F0000F50701300310CA0DCB0DFF3E031D822FE4
:100F100001300310C90CC80CFF3E031D892F49087E
:100F20004804031D942F952F752F962F7508C9011E
:100F3000C9077408C801C8079D2F0800831203134E
:100F4000C9018316031306108610051085100511BC
:100F5000851183120313C9010B304902031CB12F01
:100F6000B22FB42FC62FC62FF40149088A11F825D5
:100F70008A11013083120313C8004808C9070B30D7
:100F80004902031CC42FC52FB42FC62F0430C82F0D
:100F9000080083120313D1006E084F02031CD12FE7
:100FA000D22FD82F6E08FF3ED0005008CF00D82F88
:100FB0006D085102031CDD2FDE2FE42F6D08FF3E6C
:100FC000D0005008D100E42FCC014F080B3E840024
:100FD0008A110A258A11510780388A11CE268A1172
:100FE000080064008001840A040603190034040622
:100FF000F22F83160313061508001034023408007C
:101EDA008A15CC278A15730883120313FF00720828
:101EEA008A0071088400700E8300FE0E7E0E0900BF
:101EFA008312031390018E018F010C1083160313B2
:101F0A000C148B170B17313083120313900008003F
:101F1A00F500F4013A3075020318942F952F9E2F7D
:101F2A0030307502031C9A2F9B2F9E2FF401F40A5E
:101F3A009E2F740CA02F08008A11CD248A152030F8
:101F4A0084008313000883120313C800840A00085C
:101F5A00C900840A0008CA00840A0008CB00B52F09
:101F6A000800F601F701F801F90183132030840013
:101F7A0048308A11F1278A158A11FD278A15ED0042
:101F8A008A11FE278A15EE0083018A113F2F8312D8
:101F9A0003130C1CD12FD22FE22F0130F607003089
:101FAA0003180130F707003003180130F807003032
:101FBA0003180130F9070C10E22F080083160313E7
:101FCA00061183120313061106113430F500F1309D
:101FDA00F400F40BEE2FF50BEE2FF32F83120313FD
:101FEA00061506158316031306152730F400F40B9D
:061FFA00FC2FFF2F080080
:04400E0038FFFCFF7C
:00000001FF
