:040000008A11112828
:10000800FE00030EF0000408F1000A08F200831253
:1000180003137F08F3008A11502F8A111328F60161
:10002800F701F801F90183132030840048308A1160
:100038006E278A118A117A278A11ED008A117B2787
:10004800EE0083018A11162E83120313DF00553048
:10005800D9005908DC000130D407FF305407840068
:100068008A111D248A11D9005908E500E5080319E9
:100078000F2A6508253A03194D286508D9005F0835
:1000880084005908831380000130D9005908DF071C
:100098002F28E001E101DE0156285E150130D90064
:1000A8005908D407540884008A111D248A11303A4B
:1000B800031951285F28540884008A111D248A11C5
:1000C8008A1160278A11031CFA2883120313E0019E
:1000D800E1010A3083120313C8000030C900610827
:1000E800CB01CB076008CA01CA078A1142268A11C8
:1000F800831203134908E101E1074808E001E0071A
:10010800540884008A111D248A11D03ED900FF307A
:1001180003180030DA005908E0070318E10A5A0802
:10012800E1070130D9005908D407540884008A111E
:100138001D248A118A1160278A11031CFA286D2848
:100148008312031361086402031DAC28600863026C
:100158000318B5286308E0026408031CE103E10200
:10016800B728E001E101FF30E0070318E10AFF309A
:10017800E107FF306106031DC328FF30600603193D
:10018800E2282030D9005F088400590883138000D2
:100198000130D9005908DF07B728620884008313A3
:1001A8000008D9005F088400590880000130D90090
:1001B8005908E2070130D9005908DF070130E30286
:1001C8000030031CE403E402FF306406031DEE283C
:1001D800FF30630603192F28D1286530D900590844
:1001E800E2000130E3000030E400A428013083126B
:1001F8000313D407FF30540784008A111D248A1181
:10020800E500003A03190F2A643A03190F290D3A39
:1002180003190F29F128831203135C088400831340
:100228000008E200840A0008E3000230D9005908F7
:10023800DC07E31F28290330D9005908DE04E20946
:10024800E309E20A0319E30AE501E50A6508053A44
:1002580003194B296508D9005907013E84008A1102
:100268001D248A11DA008A111D248A11DB005B081B
:100278006302031D41295A086202031C4B290130FD
:10028800D9005908E5076508053A031D2E296108B4
:100298006004031959295E08033903195929FF30E5
:1002A800E0070318E10AFF30E1076508D900DA0121
:1002B800D91BDA035A08803ADB006108803A5B02EE
:1002C800031D68296008590203187829831203134B
:1002D8006508D900DA01D91BDA035908E0025A087F
:1002E800031CE103E1027C2983120313E001E1010D
:1002F8005E1DA3295E08033903198D292D30D90005
:100308005F0884005908831380000130D900590818
:10031800DF07610860040319CB293030D9005F0872
:1003280084005908831380000130D9005908DF0779
:10033800FF30E0070318E10AFF30E1078D29610863
:1003480060040319BC292030D9005F0884005908CB
:10035800831380000130D9005908DF07FF30E00718
:100368000318E10AFF30E10761086004031DA729AB
:100378005E0803390319CB292D30D9005F088400A2
:100388005908831380000130D9005908DF07650830
:10039800D9005908DD00FF30D9005908DD075D088C
:1003A800FF3A03192F280A30CF000030D0005D082B
:1003B800D9005907013E84008A111D248A11C800FA
:1003C8008A111D248A11C9006308CB01CB07620872
:1003D800CA01CA078A1102258A1183120313490820
:1003E800D201D2074808D101D1078A117F258A1185
:1003F800831203134F08303EDA005A08E5006508F7
:10040800D9005F0884005908831380000130D9009F
:100418005908DF07CF29831203135F088400831369
:100428008001080083120313D30053088A1167263A
:100438008A1183120313D1005108EF005008D1002C
:100448005108EE004F08D1005108ED008230D2006B
:10045800DD30D100D10B2E2AD20B2E2A332A83125B
:1004680003136F08043A031D772A03308A114225C3
:100478008A11073083120313D2007D30D100D10BCB
:10048800432AD20B432A03308A1142258A11273086
:1004980083120313D100D10B4F2A522A03308A1139
:1004A80042258A11273083120313D100D10B5A2A0F
:1004B8005D2A02308A1142258A11273083120313DC
:1004C800D100D10B652A682A83120313CC012C3082
:1004D8008A11B5258A11103083120313D100D10B6C
:1004E800732A0000B62A831203136F08083A031D03
:1004F800B62ACC0120308A11B5258A11073083121B
:100508000313D2007D30D100D10B882AD20B882A60
:1005180083120313CC0120308A11B5258A112730A4
:1005280083120313D100D10B972A9A2A831203133B
:10053800CC0120308A11B5258A1127308312031384
:10054800D100D10BA52AA82A83120313CC013C3071
:100558008A11B5258A11103083120313D100D10BEB
:10056800B32A000083120313CC0108308A11B52581
:100578008A11103083120313D100D10BC12A000055
:1005880083120313CC0101308A11B5258A11033077
:1005980083120313D2009730D100D10BD12AD20B8A
:1005A800D12AD62A83120313CC0106308A11B52525
:1005B8008A11103083120313D100D10BE12A0000F5
:1005C800080083160313A101A201831203132B0948
:1005D800E6002C09E7002D09E8002E09E900E60AE3
:1005E8000319E70A0319E80A0319E90A8A111C27FB
:1005F8008A11831203134808E60749080318490FAC
:10060800062B072BE7074A0803184A0F0C2B0D2B5C
:10061800E8074B0803184B0AE90700306902031D75
:100628001F2B13306802031D1F2B13306702031D95
:100638001F2B20306602031C08008A111C278A1110
:10064800831203134B08AE004A08AD004908AC00FA
:100658004808AB00CF01CF0A00308A118A268A11D8
:10066800A23083120313E6006608CE00A1308A1177
:10067800E6258A1183120313E7006708831603131C
:10068800A000A008031D652B263083120313E60083
:100698006608D40083160313210883120313E700A6
:1006A800E8016708D5006808D600831603132208F6
:1006B80083120313E900EA016908D7006A08D80021
:1006C800762B0F3083120313E6006608D4008316D6
:1006D8000313200883120313E700E8016708D50015
:1006E8006808D60034308A1128208A1134308312E1
:1006F8000313CF000030D0008A11AB260800831204
:100708000313CD01CA010730C8004808CB00CC014B
:10071800CD0105304D0203189E2B4D08263E84005E
:10072800831380010130C8004808CD0705304D0209
:10073800031C912B8B138A11EB268A118312031346
:10074800CC01CC0A0619B12B0130C8004808CC07E7
:100758004C08013A0319102CA62BCC01CC0A061D13
:10076800BE2B0130C8004808CC074C08013A0319D1
:10077800102CB32BCD0128304D0203180D2CCC01C1
:10078800CC0A0619D02B0130C8004808CC074C0801
:10079800013A0319102CC52B1A30C800C80BD22BEC
:1007A800000083120313061DF72BCC01CC0A061D8B
:1007B800E62B0130C8004808CC074C08013A031959
:1007C800102CDB2B0130C8004B0AEC2B0310C80D92
:1007D800FF3E031DEA2B4808C9004A08263E84004C
:1007E800490883138004CB08031D032C0730C80075
:1007F8004808CB000130C8004808CA07052C01305A
:10080800CB020130C8004808CD0728304D02031C30
:10081800C32B8B17003008008B1701300800FF1B13
:100828001D2C83137F1883170008840A0319FF0AF5
:10083800080004308A000408840A8207003401345E
:1008480000340A34003464340034E8340334103497
:1008580027340034403414345434533465346E34FB
:1008680073346F34723420346534723472346F34B4
:1008780072343A34203425343034323464342034F9
:10088800203420342034003454343A34203425348D
:1008980030343234643420344334203448343A34E5
:1008A800203425343034323464342534253420342B
:1008B80020340034203420345034523455344534F4
:1008C800423441342034443448345434313431349B
:1008D800203420340034F500A12C7408831203134B
:1008E800031D051403190510080074088312031367
:1008F800031D851403198510080074088312031357
:10090800031D051503190511080074088312031344
:10091800031D851503198511080074088312031334
:10092800031D861403198610080074088312031324
:10093800031D06140319061008007508043A031964
:10094800712C013A0319792C033A0319812C013AC5
:100958000319892C0F3A0319992C013A0319912C80
:10096800033A0319B82CB82C0800831203132F0973
:10097800CC003009CD003109CE003209CF00CC0AB5
:100988000319CD0A0319CE0A0319CF0A8A111C27A5
:100998008A11831203134808CC0749080318490F22
:1009A800D62CD72CCD074A0803184A0FDC2CDD2C8F
:1009B800CE074B0803184B0ACF0700304F02031D20
:1009C800EF2C01304E02031DEF2CE8304D02031DC1
:1009D800EF2C50304C02031C08008A111C2783128C
:1009E80003134B08B2004A08B1004908B000480890
:1009F800AF001030CC004C088506080083120313A2
:100A0800CD01CE014908480403193B2DCC01CC0A7D
:100A1800C91B1A2D01300310C80DC90DFF3E031D57
:100A28000F2D0130F4007408CC070C2D0130031091
:100A3800CD0DCE0DFF3E031D1B2D49084B02031D96
:100A4800272D48084A02031C302D4808CA024908C5
:100A5800031CCB03CB024D1401300310C90CC80C86
:100A6800FF3E031D312D0130CC02031D1A2D4E0807
:100A7800C901C9074D08C801C80708008312031334
:100A8800CA000430C8004808CB0008304B020318DD
:100A98006E2D0130C8004B08FC3E013E552D031059
:100AA800C80DFF3E031D532D48084A050030031D9D
:100AB8000130C9004908F4004B088A116F248A11D3
:100AC800013083120313C8004808CB0708304B02D3
:100AD800031C4D2DF401F40A08308A116F248A1181
:100AE800033083120313C800C80B782DF4010830B3
:100AF8008A116F2408008312031350084F04031946
:100B0800AE2DD301D30AD01B952D01300310CF0D84
:100B1800D00DFF3E031D8A2D0130F5007508D3075F
:100B2800872D50085202031D9B2D4F085102031CAC
:100B3800A32D4F08D1025008031CD203D202013062
:100B48000310D00CCF0CFF3E031DA42D0130D3029F
:100B5800031D952D5208D001D0075108CF01CF07AA
:100B6800080083120313CE004C080319BE2DF401AC
:100B7800F40ABF2DF40109308A116F248A11F40197
:100B88000A308A116F248A11831203136F08043AFA
:100B9800031DE02D4E08CD0004300310CD0CFF3EA0
:100BA800031DD12D4D088A1142258A118312031382
:100BB8004E088A1142250800831203134E088A1131
:100BC8007C27080083120313D2008A1183238A1119
:100BD80083120313CF004F08D40054080319F62DCD
:100BE8005408080028082707CF0029084F07D00015
:100BF80026085007D1005108D3002A0853060319C4
:100C0800072E023008002608CF004E0884004F083F
:100C1800831380002808CF00520884004F08800002
:100C2800003008007C30831603138F009B011030BE
:100C380083120313EB006B08CF000230EC006C0842
:100C4800D00000308A1116228A118A1140278A1191
:100C58008A1176278A118A112F278A113C3083122C
:100C68000313CF008030D0008A11AB268A118A1175
:100C7800B9248A118A11E5228A113B2EF401F50163
:100C880083120313481C4E2E4A08F4070318F50A6A
:100C98004B08F50701300310CA0DCB0DFF3E031DAD
:100CA8004F2E01300310C90CC80CFF3E031D562EF1
:100CB80049084804031D442E7508C901C90774086A
:100CC800C801C807080083120313C9018316031358
:100CD800061086100510851005118511831203135F
:100CE800C9010B3049020318882EF40149088A11FA
:100CF8006F248A11013083120313C8004808C907FA
:100D08000B304902031C792E0430080083120313A8
:100D1800D1006E084F02031C962E6E08FF3ED000CD
:100D28005008CF006D085102031C9F2E6D08FF3E2E
:100D3800D0005008D100CC014F080B3E84008A1126
:100D48001D248A11510780388A11B525080083129D
:100D580003135008FF004F0884008A1113248A11D6
:100D680000380319080083120313CC01CC0A500879
:100D7800FF004F0884008A1113248A118A11B525AF
:100D88008A11013083120313CF070318D00AAB2E40
:100D9800831603130C140000831603130C1083121C
:100DA80003130E08F4007408A0000F08F400740878
:100DB800A1007908A5007808A4007708A3007608A0
:100DC800A2000C18CC2E831603130C1408008316EB
:100DD8000313061183120313061106113430F500AC
:100DE800F130F400F40BF62EF50BF62EFB2E8312E1
:100DF8000313061506158316031306152730F4008A
:100E0800F40B042F072F0800831203130C1C08008F
:100E18000130F607003003180130F70700300318D7
:100E28000130F807003003180130F9070C100800EA
:100E38008A11CC2620308400831300088312031300
:100E4800C800840A0008C900840A0008CA00840A85
:100E58000008CB000800831203133315CC013308B4
:100E680008388A11B5258A11103083120313CF0070
:100E7800CF0B3C2F000008008312031390018E0152
:100E88008F010C10831603130C148B170B173130BA
:100E980083120313900008008A1108278A11730827
:100EA80083120313FF0072088A0071088400700E11
:100EB8008300FE0E7E0E0900F500F4013A3075023B
:100EC80003186C2F30307502031C6C2FF401F40AE0
:100ED800740C080064008001840A040603190034B5
:100EE80004066F2F83160313061508001034023406
:020EF8000800F0
:04400E0038FFFCFF7C
:00000001FF
